{
  "address": "0x5FbDB2315678afecb367f032d93F642f64180aa3",
  "abi": [
    {
      "inputs": [],
      "name": "HandlesAlreadySavedForRequestID",
      "type": "error"
    },
    {
      "anonymous": false,
      "inputs": [
        {
          "indexed": true,
          "internalType": "uint256",
          "name": "electionId",
          "type": "uint256"
        },
        {
          "indexed": false,
          "internalType": "string",
          "name": "title",
          "type": "string"
        },
        {
          "indexed": true,
          "internalType": "address",
          "name": "admin",
          "type": "address"
        },
        {
          "indexed": false,
          "internalType": "uint256",
          "name": "candidateCount",
          "type": "uint256"
        }
      ],
      "name": "ElectionCreated",
      "type": "event"
    },
    {
      "anonymous": false,
      "inputs": [
        {
          "indexed": true,
          "internalType": "uint256",
          "name": "electionId",
          "type": "uint256"
        },
        {
          "indexed": false,
          "internalType": "uint256",
          "name": "timestamp",
          "type": "uint256"
        },
        {
          "indexed": true,
          "internalType": "address",
          "name": "endedBy",
          "type": "address"
        }
      ],
      "name": "ElectionEnded",
      "type": "event"
    },
    {
      "anonymous": false,
      "inputs": [
        {
          "indexed": true,
          "internalType": "uint256",
          "name": "electionId",
          "type": "uint256"
        },
        {
          "indexed": false,
          "internalType": "uint256",
          "name": "decryptedSum",
          "type": "uint256"
        },
        {
          "indexed": false,
          "internalType": "uint256",
          "name": "totalVoters",
          "type": "uint256"
        },
        {
          "indexed": true,
          "internalType": "address",
          "name": "finalizedBy",
          "type": "address"
        }
      ],
      "name": "ElectionFinalized",
      "type": "event"
    },
    {
      "anonymous": false,
      "inputs": [
        {
          "indexed": true,
          "internalType": "uint256",
          "name": "electionId",
          "type": "uint256"
        },
        {
          "indexed": false,
          "internalType": "uint256",
          "name": "requestId",
          "type": "uint256"
        },
        {
          "indexed": true,
          "internalType": "address",
          "name": "requestedBy",
          "type": "address"
        }
      ],
      "name": "FinalizeRequested",
      "type": "event"
    },
    {
      "anonymous": false,
      "inputs": [
        {
          "indexed": true,
          "internalType": "uint256",
          "name": "electionId",
          "type": "uint256"
        },
        {
          "indexed": true,
          "internalType": "address",
          "name": "voter",
          "type": "address"
        },
        {
          "indexed": false,
          "internalType": "uint256",
          "name": "totalVoters",
          "type": "uint256"
        }
      ],
      "name": "VoteCasted",
      "type": "event"
    },
    {
      "inputs": [
        {
          "internalType": "uint256",
          "name": "",
          "type": "uint256"
        },
        {
          "internalType": "uint256",
          "name": "",
          "type": "uint256"
        }
      ],
      "name": "candidateVoteCounts",
      "outputs": [
        {
          "internalType": "euint32",
          "name": "",
          "type": "bytes32"
        }
      ],
      "stateMutability": "view",
      "type": "function"
    },
    {
      "inputs": [
        {
          "internalType": "string",
          "name": "_title",
          "type": "string"
        },
        {
          "internalType": "string",
          "name": "_description",
          "type": "string"
        },
        {
          "internalType": "string[]",
          "name": "_candidateNames",
          "type": "string[]"
        },
        {
          "internalType": "uint256",
          "name": "_durationInHours",
          "type": "uint256"
        }
      ],
      "name": "createElection",
      "outputs": [
        {
          "internalType": "uint256",
          "name": "",
          "type": "uint256"
        }
      ],
      "stateMutability": "nonpayable",
      "type": "function"
    },
    {
      "inputs": [
        {
          "internalType": "uint256",
          "name": "requestId",
          "type": "uint256"
        },
        {
          "internalType": "bytes",
          "name": "cleartexts",
          "type": "bytes"
        },
        {
          "internalType": "bytes[]",
          "name": "",
          "type": "bytes[]"
        }
      ],
      "name": "decryptionCallback",
      "outputs": [
        {
          "internalType": "bool",
          "name": "",
          "type": "bool"
        }
      ],
      "stateMutability": "nonpayable",
      "type": "function"
    },
    {
      "inputs": [
        {
          "internalType": "uint256",
          "name": "",
          "type": "uint256"
        }
      ],
      "name": "elections",
      "outputs": [
        {
          "internalType": "string",
          "name": "title",
          "type": "string"
        },
        {
          "internalType": "string",
          "name": "description",
          "type": "string"
        },
        {
          "internalType": "uint256",
          "name": "candidateCount",
          "type": "uint256"
        },
        {
          "internalType": "uint256",
          "name": "endTime",
          "type": "uint256"
        },
        {
          "internalType": "bool",
          "name": "isActive",
          "type": "bool"
        },
        {
          "internalType": "bool",
          "name": "isFinalized",
          "type": "bool"
        },
        {
          "internalType": "euint32",
          "name": "encryptedVoteSum",
          "type": "bytes32"
        },
        {
          "internalType": "address",
          "name": "admin",
          "type": "address"
        },
        {
          "internalType": "uint256",
          "name": "totalVoters",
          "type": "uint256"
        },
        {
          "internalType": "uint32",
          "name": "decryptedSum",
          "type": "uint32"
        }
      ],
      "stateMutability": "view",
      "type": "function"
    },
    {
      "inputs": [
        {
          "internalType": "uint256",
          "name": "_electionId",
          "type": "uint256"
        }
      ],
      "name": "endElection",
      "outputs": [],
      "stateMutability": "nonpayable",
      "type": "function"
    },
    {
      "inputs": [
        {
          "internalType": "uint256",
          "name": "_electionId",
          "type": "uint256"
        }
      ],
      "name": "finalizeElection",
      "outputs": [],
      "stateMutability": "nonpayable",
      "type": "function"
    },
    {
      "inputs": [
        {
          "internalType": "uint256",
          "name": "_electionId",
          "type": "uint256"
        },
        {
          "internalType": "uint256",
          "name": "_candidateId",
          "type": "uint256"
        }
      ],
      "name": "getCandidateVoteCount",
      "outputs": [
        {
          "internalType": "euint32",
          "name": "",
          "type": "bytes32"
        }
      ],
      "stateMutability": "view",
      "type": "function"
    },
    {
      "inputs": [
        {
          "internalType": "uint256",
          "name": "_electionId",
          "type": "uint256"
        }
      ],
      "name": "getDecryptedVoteSum",
      "outputs": [
        {
          "internalType": "uint32",
          "name": "",
          "type": "uint32"
        }
      ],
      "stateMutability": "view",
      "type": "function"
    },
    {
      "inputs": [
        {
          "internalType": "uint256",
          "name": "_electionId",
          "type": "uint256"
        }
      ],
      "name": "getElection",
      "outputs": [
        {
          "internalType": "string",
          "name": "title",
          "type": "string"
        },
        {
          "internalType": "string",
          "name": "description",
          "type": "string"
        },
        {
          "internalType": "uint256",
          "name": "candidateCount",
          "type": "uint256"
        },
        {
          "internalType": "string[]",
          "name": "candidateNames",
          "type": "string[]"
        },
        {
          "internalType": "uint256",
          "name": "endTime",
          "type": "uint256"
        },
        {
          "internalType": "bool",
          "name": "isActive",
          "type": "bool"
        },
        {
          "internalType": "bool",
          "name": "isFinalized",
          "type": "bool"
        },
        {
          "internalType": "address",
          "name": "admin",
          "type": "address"
        },
        {
          "internalType": "uint256",
          "name": "totalVoters",
          "type": "uint256"
        }
      ],
      "stateMutability": "view",
      "type": "function"
    },
    {
      "inputs": [
        {
          "internalType": "uint256",
          "name": "_electionId",
          "type": "uint256"
        }
      ],
      "name": "getElectionAdmin",
      "outputs": [
        {
          "internalType": "address",
          "name": "",
          "type": "address"
        }
      ],
      "stateMutability": "view",
      "type": "function"
    },
    {
      "inputs": [],
      "name": "getElectionCount",
      "outputs": [
        {
          "internalType": "uint256",
          "name": "",
          "type": "uint256"
        }
      ],
      "stateMutability": "view",
      "type": "function"
    },
    {
      "inputs": [
        {
          "internalType": "uint256",
          "name": "_electionId",
          "type": "uint256"
        }
      ],
      "name": "getEncryptedVoteSum",
      "outputs": [
        {
          "internalType": "euint32",
          "name": "",
          "type": "bytes32"
        }
      ],
      "stateMutability": "view",
      "type": "function"
    },
    {
      "inputs": [
        {
          "internalType": "uint256",
          "name": "_electionId",
          "type": "uint256"
        },
        {
          "internalType": "address",
          "name": "_voter",
          "type": "address"
        }
      ],
      "name": "hasUserVoted",
      "outputs": [
        {
          "internalType": "bool",
          "name": "",
          "type": "bool"
        }
      ],
      "stateMutability": "view",
      "type": "function"
    },
    {
      "inputs": [
        {
          "internalType": "uint256",
          "name": "",
          "type": "uint256"
        },
        {
          "internalType": "address",
          "name": "",
          "type": "address"
        }
      ],
      "name": "hasVoted",
      "outputs": [
        {
          "internalType": "bool",
          "name": "",
          "type": "bool"
        }
      ],
      "stateMutability": "view",
      "type": "function"
    },
    {
      "inputs": [],
      "name": "protocolId",
      "outputs": [
        {
          "internalType": "uint256",
          "name": "",
          "type": "uint256"
        }
      ],
      "stateMutability": "pure",
      "type": "function"
    },
    {
      "inputs": [
        {
          "internalType": "uint256",
          "name": "_electionId",
          "type": "uint256"
        },
        {
          "internalType": "externalEuint32",
          "name": "_encryptedVote",
          "type": "bytes32"
        },
        {
          "internalType": "bytes",
          "name": "inputProof",
          "type": "bytes"
        }
      ],
      "name": "vote",
      "outputs": [],
      "stateMutability": "nonpayable",
      "type": "function"
    }
  ],
  "transactionHash": "0x11cc8e0fca0ad4067c3c79a4c6e73777c3eee2e9704b92aa1536b2411a9f645e",
  "args": [],
  "numDeployments": 1,
  "solcInputHash": "8e9db474981dc13614cf8233bf19a8f1",
  "bytecode": "0x608060405234801561000f575f5ffd5b5061018a6100ae604080516080810182525f80825260208201819052918101829052606081019190915250604080516080810182527350157cffd6bbfa2dece204a89ec419c23ef5755d815273cd3ab3bd6bcc0c0bf3e27912a92043e817b1cf69602082015273a02cda4ca3a71d7c46997716f4283aa851c2881291810191909152731364cbbf2cdf5032c47d8226a6f6fbd2afcdacac606082015290565b80517f9e7b61f58c47dc699ac88507c4f5bb9f121c03808c5676a8078fe583e464970080546001600160a01b03199081166001600160a01b039384161790915560208301517f9e7b61f58c47dc699ac88507c4f5bb9f121c03808c5676a8078fe583e46497018054831691841691909117905560408301517f9e7b61f58c47dc699ac88507c4f5bb9f121c03808c5676a8078fe583e46497028054831691841691909117905560608301517f9e7b61f58c47dc699ac88507c4f5bb9f121c03808c5676a8078fe583e46497038054909216921691909117905550565b61343c806101975f395ff3fe608060405234801561000f575f5ffd5b50600436106100fb575f3560e01c80635eff1bb811610093578063b8398e6811610063578063b8398e6814610255578063d512a6f11461027f578063da1f12ab146102a7578063dc296ae1146102af575f5ffd5b80635eff1bb8146101f45780636012aa3c146102075780639c98bcbb1461021a5780639d7107771461022d575f5ffd5b806343859632116100ce57806343859632146101685780634a67faaa146101a55780635cde8547146101b85780635e6fef01146101cb575f5ffd5b806305b47486146100ff5780631537052e1461012f578063213785a014610144578063396aabeb14610155575b5f5ffd5b61011261010d366004612c1f565b6102c2565b6040516001600160a01b0390911681526020015b60405180910390f35b61014261013d366004612c1f565b61034b565b005b5f545b604051908152602001610126565b610147610163366004612c36565b610727565b610195610176366004612c56565b600160209081525f928352604080842090915290825290205460ff1681565b6040519015158152602001610126565b6101956101b3366004612d69565b610802565b6101476101c6366004612c1f565b6109ca565b6101de6101d9366004612c1f565b610bac565b6040516101269a99989796959493929190612e82565b610142610202366004612ef9565b610d30565b610147610215366004612f75565b61152f565b610142610228366004612c1f565b611c98565b61024061023b366004612c1f565b611fbe565b60405161012699989796959493929190613082565b610147610263366004612c36565b600260209081525f928352604080842090915290825290205481565b61029261028d366004612c1f565b612283565b60405163ffffffff9091168152602001610126565b612711610147565b6101956102bd366004612c56565b61237d565b5f8054829081106103145760405162461bcd60e51b8152602060048201526017602482015276115b1958dd1a5bdb88191bd95cc81b9bdd08195e1a5cdd604a1b60448201526064015b60405180910390fd5b5f83815481106103265761032661314b565b5f91825260209091206007600a9092020101546001600160a01b031691505b50919050565b5f54819081106103975760405162461bcd60e51b8152602060048201526017602482015276115b1958dd1a5bdb88191bd95cc81b9bdd08195e1a5cdd604a1b604482015260640161030b565b5f6001600160a01b03165f82815481106103b3576103b361314b565b5f91825260209091206007600a9092020101546001600160a01b03160361041c5760405162461bcd60e51b815260206004820152601660248201527f456c656374696f6e2061646d696e206e6f742073657400000000000000000000604482015260640161030b565b336001600160a01b03165f82815481106104385761043861314b565b5f91825260209091206007600a9092020101546001600160a01b0316146104b55760405162461bcd60e51b815260206004820152602b60248201527f4f6e6c7920656c656374696f6e2061646d696e2063616e20706572666f726d2060448201526a3a3434b99030b1ba34b7b760a91b606482015260840161030b565b336105025760405162461bcd60e51b815260206004820152601660248201527f496e76616c69642063616c6c6572206164647265737300000000000000000000604482015260640161030b565b5f5f83815481106105155761051561314b565b5f9182526020909120600a90910201600581015490915060ff161561057c5760405162461bcd60e51b815260206004820152601560248201527f456c656374696f6e207374696c6c206163746976650000000000000000000000604482015260640161030b565b6005810154610100900460ff16156105d65760405162461bcd60e51b815260206004820152601a60248201527f456c656374696f6e20616c72656164792066696e616c697a6564000000000000604482015260640161030b565b5f8160080154116106295760405162461bcd60e51b815260206004820152601e60248201527f4e6f20766f746573206361737420696e207468697320656c656374696f6e0000604482015260640161030b565b600681015461067a5760405162461bcd60e51b815260206004820152601d60248201527f4e6f20656e6372797074656420766f74657320746f2064656372797074000000604482015260640161030b565b6040805160018082528183019092525f91602080830190803683375050506006830154909150815f815181106106b2576106b261314b565b60209081029190910101525f6106cf82632533fd5560e11b6123a9565b5f818152600360205260409081902087905551909150339086907fac47f9e68c629756d94be8a53b62cc2712a56306fe6c79b64bd7201c88303fe2906107189085815260200190565b60405180910390a35050505050565b5f8054839081106107745760405162461bcd60e51b8152602060048201526017602482015276115b1958dd1a5bdb88191bd95cc81b9bdd08195e1a5cdd604a1b604482015260640161030b565b5f84815481106107865761078661314b565b905f5260205f2090600a02016002015483106107e45760405162461bcd60e51b815260206004820152601460248201527f496e76616c69642063616e646964617465204944000000000000000000000000604482015260640161030b565b50505f91825260026020908152604080842092845291905290205490565b5f83815260036020526040812054815482908190839081106108265761082661314b565b905f5260205f2090600a020190508060050160019054906101000a900460ff16156108935760405162461bcd60e51b815260206004820152601a60248201527f456c656374696f6e20616c72656164792066696e616c697a6564000000000000604482015260640161030b565b600581015460ff16156108e85760405162461bcd60e51b815260206004820152601560248201527f456c656374696f6e207374696c6c206163746976650000000000000000000000604482015260640161030b565b60048551101561093a5760405162461bcd60e51b815260206004820152601960248201527f496e76616c696420636c6561727465787473206c656e67746800000000000000604482015260640161030b565b602085015160098201805463ffffffff191660e09290921c918217905560058201805461ff0019166101001790556008820154604051339185917ffa3af4f5d35c9465d6b949339ae4551558c1f968a82bf9d65a15fe16c007ded6916109b39186919063ffffffff929092168252602082015260400190565b60405180910390a3600193505050505b9392505050565b5f805482908110610a175760405162461bcd60e51b8152602060048201526017602482015276115b1958dd1a5bdb88191bd95cc81b9bdd08195e1a5cdd604a1b604482015260640161030b565b5f6001600160a01b03165f8281548110610a3357610a3361314b565b5f91825260209091206007600a9092020101546001600160a01b031603610a9c5760405162461bcd60e51b815260206004820152601660248201527f456c656374696f6e2061646d696e206e6f742073657400000000000000000000604482015260640161030b565b336001600160a01b03165f8281548110610ab857610ab861314b565b5f91825260209091206007600a9092020101546001600160a01b031614610b355760405162461bcd60e51b815260206004820152602b60248201527f4f6e6c7920656c656374696f6e2061646d696e2063616e20706572666f726d2060448201526a3a3434b99030b1ba34b7b760a91b606482015260840161030b565b33610b825760405162461bcd60e51b815260206004820152601660248201527f496e76616c69642063616c6c6572206164647265737300000000000000000000604482015260640161030b565b5f8381548110610b9457610b9461314b565b905f5260205f2090600a020160060154915050919050565b5f8181548110610bba575f80fd5b905f5260205f2090600a02015f91509050805f018054610bd99061315f565b80601f0160208091040260200160405190810160405280929190818152602001828054610c059061315f565b8015610c505780601f10610c2757610100808354040283529160200191610c50565b820191905f5260205f20905b815481529060010190602001808311610c3357829003601f168201915b505050505090806001018054610c659061315f565b80601f0160208091040260200160405190810160405280929190818152602001828054610c919061315f565b8015610cdc5780601f10610cb357610100808354040283529160200191610cdc565b820191905f5260205f20905b815481529060010190602001808311610cbf57829003601f168201915b505050506002830154600484015460058501546006860154600787015460088801546009909801549697949693955060ff80841695610100909404169391926001600160a01b039091169163ffffffff168a565b5f5484908110610d7c5760405162461bcd60e51b8152602060048201526017602482015276115b1958dd1a5bdb88191bd95cc81b9bdd08195e1a5cdd604a1b604482015260640161030b565b845f8181548110610d8f57610d8f61314b565b5f91825260209091206005600a90920201015460ff16610df15760405162461bcd60e51b815260206004820152601660248201527f456c656374696f6e206973206e6f742061637469766500000000000000000000604482015260640161030b565b5f8181548110610e0357610e0361314b565b905f5260205f2090600a0201600401544210610e615760405162461bcd60e51b815260206004820152601260248201527f456c656374696f6e2068617320656e6465640000000000000000000000000000604482015260640161030b565b5f8181548110610e7357610e7361314b565b905f5260205f2090600a020160050160019054906101000a900460ff1615610edd5760405162461bcd60e51b815260206004820152601560248201527f456c656374696f6e2069732066696e616c697a65640000000000000000000000604482015260640161030b565b5f86815260016020908152604080832033845290915290205460ff1615610f465760405162461bcd60e51b815260206004820152601e60248201527f416c726561647920766f74656420696e207468697320656c656374696f6e0000604482015260640161030b565b5f5f8781548110610f5957610f5961314b565b5f9182526020909120600a90910201600581015490915060ff16610fbf5760405162461bcd60e51b815260206004820152601f60248201527f456c656374696f6e206d7573742062652061637469766520746f20766f746500604482015260640161030b565b6005810154610100900460ff16156110195760405162461bcd60e51b815260206004820152601a60248201527f456c656374696f6e20616c72656164792066696e616c697a6564000000000000604482015260640161030b565b8060040154421061106c5760405162461bcd60e51b815260206004820152601260248201527f456c656374696f6e2068617320656e6465640000000000000000000000000000604482015260640161030b565b6103e88160080154106110c15760405162461bcd60e51b815260206004820152601660248201527f4d6178696d756d20766f74657273207265616368656400000000000000000000604482015260640161030b565b5f815f0180546110d09061315f565b90501161111f5760405162461bcd60e51b815260206004820152601960248201527f456c656374696f6e207469746c6520697320696e76616c696400000000000000604482015260640161030b565b5f8160020154116111725760405162461bcd60e51b815260206004820152601a60248201527f456c656374696f6e20686173206e6f2063616e64696461746573000000000000604482015260640161030b565b600a816002015411156111c75760405162461bcd60e51b815260206004820152601360248201527f546f6f206d616e792063616e6469646174657300000000000000000000000000604482015260640161030b565b6005810154610100900460ff16156112215760405162461bcd60e51b815260206004820152601a60248201527f456c656374696f6e20616c72656164792066696e616c697a6564000000000000604482015260640161030b565b5f6112618787878080601f0160208091040260200160405190810160405280939291908181526020018383808284375f920191909152506123b592505050565b9050846112d65760405162461bcd60e51b815260206004820152602860248201527f496e7075742070726f6f6620726571756972656420666f7220766f746520766160448201527f6c69646174696f6e000000000000000000000000000000000000000000000000606482015260840161030b565b60028260020154101580156112f057506014826002015411155b6113475760405162461bcd60e51b815260206004820152602260248201527f496e76616c69642063616e64696461746520636f756e7420666f7220766f74696044820152616e6760f01b606482015260840161030b565b81600801545f036113c1575f5b8260020154811080156113675750601481105b156113bb576113755f6123c2565b5f8a8152600260209081526040808320858452909152902081905560078401546113a891906001600160a01b03166123d4565b50806113b3816131a5565b915050611354565b5061144c565b5f88815260026020908152604080832083805290915290205461144c5760405162461bcd60e51b815260206004820152602660248201527f566f746520636f756e74657273206e6f742070726f7065726c7920696e69746960448201527f616c697a65640000000000000000000000000000000000000000000000000000606482015260840161030b565b81600801545f036114635760068201819055611479565b600682015461147281836123e6565b6006840155505b6114868260060154612414565b50600682015460078301546114a491906001600160a01b03166123d4565b505f8881526001602081815260408084203385529091528220805460ff19169091179055600883018054916114d8836131a5565b9190505550336001600160a01b0316887fe7ee74ca1f4bb1b82b14f87794c45b3e59c39e372b862fb97a6316b43355b69e846008015460405161151d91815260200190565b60405180910390a35050505050505050565b5f5f8551116115805760405162461bcd60e51b815260206004820152601560248201527f5469746c652063616e6e6f7420626520656d7074790000000000000000000000604482015260640161030b565b6003855110156115d25760405162461bcd60e51b815260206004820152600f60248201527f5469746c6520746f6f2073686f72740000000000000000000000000000000000604482015260640161030b565b6064855111156116245760405162461bcd60e51b815260206004820152600e60248201527f5469746c6520746f6f206c6f6e67000000000000000000000000000000000000604482015260640161030b565b6103e8845111156116775760405162461bcd60e51b815260206004820152601460248201527f4465736372697074696f6e20746f6f206c6f6e67000000000000000000000000604482015260640161030b565b6002835110156116c95760405162461bcd60e51b815260206004820152601f60248201527f4d7573742068617665206174206c6561737420322063616e6469646174657300604482015260640161030b565b6014835111156117275760405162461bcd60e51b815260206004820152602360248201527f43616e6e6f742068617665206d6f7265207468616e2032302063616e6469646160448201526274657360e81b606482015260840161030b565b60018210156117785760405162461bcd60e51b815260206004820181905260248201527f4475726174696f6e206d757374206265206174206c65617374203120686f7572604482015260640161030b565b60a88211156117c95760405162461bcd60e51b815260206004820152601d60248201527f4475726174696f6e2063616e6e6f74206578636565642031207765656b000000604482015260640161030b565b61223882111561181b5760405162461bcd60e51b815260206004820152601d60248201527f4475726174696f6e2063616e6e6f742065786365656420312079656172000000604482015260640161030b565b5f5b8351811015611b87575f8482815181106118395761183961314b565b6020026020010151511161188f5760405162461bcd60e51b815260206004820152601e60248201527f43616e646964617465206e616d652063616e6e6f7420626520656d7074790000604482015260640161030b565b60028482815181106118a3576118a361314b565b60200260200101515110156118fa5760405162461bcd60e51b815260206004820152601860248201527f43616e646964617465206e616d6520746f6f2073686f72740000000000000000604482015260640161030b565b603284828151811061190e5761190e61314b565b60200260200101515111156119655760405162461bcd60e51b815260206004820152601760248201527f43616e646964617465206e616d6520746f6f206c6f6e67000000000000000000604482015260640161030b565b61198784828151811061197a5761197a61314b565b6020026020010151612423565b156119fa5760405162461bcd60e51b815260206004820152602860248201527f43616e646964617465206e616d652063616e6e6f74206265206f6e6c7920776860448201527f6974657370616365000000000000000000000000000000000000000000000000606482015260840161030b565b5f611a068260016131bd565b90505b8451811015611b7e57848181518110611a2457611a2461314b565b602002602001015180519060200120858381518110611a4557611a4561314b565b60200260200101518051906020012003611ac75760405162461bcd60e51b815260206004820152602560248201527f4475706c69636174652063616e646964617465206e616d6573206e6f7420616c60448201527f6c6f776564000000000000000000000000000000000000000000000000000000606482015260840161030b565b611b03858381518110611adc57611adc61314b565b6020026020010151868381518110611af657611af661314b565b602002602001015161250c565b15611b765760405162461bcd60e51b815260206004820152603160248201527f43616e646964617465206e616d65732063616e6e6f74206265206964656e746960448201527f63616c2069676e6f72696e672063617365000000000000000000000000000000606482015260840161030b565b600101611a09565b5060010161181d565b505f8054600181018255908052600a81027f290decd9548b62a8d60345a988386fc84ba6bc95484008f6362f93160ef3e5630180611bc5888261321c565b5060018101611bd4878261321c565b50845160028201819055611bf19060038301906020880190612b20565b50611bfe84610e106132d7565b611c0890426131bd565b600482015560058101805461ffff191660011790556007810180547fffffffffffffffffffffffff000000000000000000000000000000000000000016339081179091555f6008830155855160405184917fd23ef06c7844e877487d9ad5ab1cf6a2b151be4edc516b1b332595c01509c44891611c86918c916132ee565b60405180910390a35095945050505050565b5f5481908110611ce45760405162461bcd60e51b8152602060048201526017602482015276115b1958dd1a5bdb88191bd95cc81b9bdd08195e1a5cdd604a1b604482015260640161030b565b5f6001600160a01b03165f8281548110611d0057611d0061314b565b5f91825260209091206007600a9092020101546001600160a01b031603611d695760405162461bcd60e51b815260206004820152601660248201527f456c656374696f6e2061646d696e206e6f742073657400000000000000000000604482015260640161030b565b336001600160a01b03165f8281548110611d8557611d8561314b565b5f91825260209091206007600a9092020101546001600160a01b031614611e025760405162461bcd60e51b815260206004820152602b60248201527f4f6e6c7920656c656374696f6e2061646d696e2063616e20706572666f726d2060448201526a3a3434b99030b1ba34b7b760a91b606482015260840161030b565b33611e4f5760405162461bcd60e51b815260206004820152601660248201527f496e76616c69642063616c6c6572206164647265737300000000000000000000604482015260640161030b565b5f5f8381548110611e6257611e6261314b565b5f9182526020909120600a90910201600581015490915060ff16611ec85760405162461bcd60e51b815260206004820152601360248201527f456c656374696f6e206e6f742061637469766500000000000000000000000000604482015260640161030b565b8060040154421015611f1c5760405162461bcd60e51b815260206004820152601a60248201527f456c656374696f6e20686173206e6f7420656e64656420796574000000000000604482015260640161030b565b6005810154610100900460ff1615611f765760405162461bcd60e51b815260206004820152601a60248201527f456c656374696f6e20616c72656164792066696e616c697a6564000000000000604482015260640161030b565b60058101805460ff19169055604051428152339084907fc320ad245cbb75af6bc33306823df83424412ec171e460708cb5d30e80d40e459060200160405180910390a3505050565b6060805f60605f5f5f5f5f895f8054905081106120175760405162461bcd60e51b8152602060048201526017602482015276115b1958dd1a5bdb88191bd95cc81b9bdd08195e1a5cdd604a1b604482015260640161030b565b5f5f8c8154811061202a5761202a61314b565b5f9182526020909120600a9091020160028101546004820154600583015460078401546008850154855495965086956001870195946003880194909360ff8083169461010090930416926001600160a01b039091169190899061208c9061315f565b80601f01602080910402602001604051908101604052809291908181526020018280546120b89061315f565b80156121035780601f106120da57610100808354040283529160200191612103565b820191905f5260205f20905b8154815290600101906020018083116120e657829003601f168201915b505050505098508780546121169061315f565b80601f01602080910402602001604051908101604052809291908181526020018280546121429061315f565b801561218d5780601f106121645761010080835404028352916020019161218d565b820191905f5260205f20905b81548152906001019060200180831161217057829003601f168201915b5050505050975085805480602002602001604051908101604052809291908181526020015f905b8282101561225c578382905f5260205f200180546121d19061315f565b80601f01602080910402602001604051908101604052809291908181526020018280546121fd9061315f565b80156122485780601f1061221f57610100808354040283529160200191612248565b820191905f5260205f20905b81548152906001019060200180831161222b57829003601f168201915b5050505050815260200190600101906121b4565b5050505095509a509a509a509a509a509a509a509a509a5050509193959799909294969850565b5f8054829081106122d05760405162461bcd60e51b8152602060048201526017602482015276115b1958dd1a5bdb88191bd95cc81b9bdd08195e1a5cdd604a1b604482015260640161030b565b5f83815481106122e2576122e261314b565b905f5260205f2090600a020160050160019054906101000a900460ff1661234b5760405162461bcd60e51b815260206004820152601660248201527f456c656374696f6e206e6f742066696e616c697a656400000000000000000000604482015260640161030b565b5f838154811061235d5761235d61314b565b5f9182526020909120600a909102016009015463ffffffff169392505050565b5f8281526001602090815260408083206001600160a01b038516845290915290205460ff165b92915050565b5f6109c383835f612631565b5f6109c38383600461275f565b5f6123a38263ffffffff16600461287f565b5f6123df838361293c565b5090919050565b5f826123f8576123f55f6123c2565b92505b81612409576124065f6123c2565b91505b6109c383835f6129c5565b5f61241f823061293c565b5090565b5f81815b8151811015612502578181815181106124425761244261314b565b6020910101516001600160f81b031916600160fd1b1480159061248a57508181815181106124725761247261314b565b6020910101516001600160f81b031916600960f81b14155b80156124bb57508181815181106124a3576124a361314b565b6020910101516001600160f81b031916600560f91b14155b80156124ec57508181815181106124d4576124d461314b565b6020910101516001600160f81b031916600d60f81b14155b156124fa57505f9392505050565b600101612427565b5051151592915050565b805182515f918491849114612525575f925050506123a3565b5f5b8251811015612625575f8382815181106125435761254361314b565b602001015160f81c60f81b90505f8383815181106125635761256361314b565b01602001516001600160f81b03199081169150604160f81b9083161080159061259a5750602d60f91b6001600160f81b0319831611155b156125b4576125ae60f883901c602061330f565b60f81b91505b604160f81b6001600160f81b03198216108015906125e05750602d60f91b6001600160f81b0319821611155b156125fa576125f460f882901c602061330f565b60f81b90505b6001600160f81b03198281169082161461261b575f955050505050506123a3565b5050600101612527565b50600195945050505050565b7f878245876662ba28a480c5ea71726db859fb50222b0a3d7cbbc21cfa336faf0080547f9e7b61f58c47dc699ac88507c4f5bb9f121c03808c5676a8078fe583e46497008054604051637d6e912360e11b81529293926001600160a01b039091169063fadd2246906126a7908990600401613362565b5f604051808303815f87803b1580156126be575f5ffd5b505af11580156126d0573d5f5f3e3d5ffd5b5050506002820154604051633263b83b60e01b81526001600160a01b039091169150633263b83b90869061270c9087908b908b90600401613374565b5f604051808303818588803b158015612723575f5ffd5b505af1158015612735573d5f5f3e3d5ffd5b50505050506127448387612a8d565b8154825f612751836131a5565b919050555050509392505050565b7f9e7b61f58c47dc699ac88507c4f5bb9f121c03808c5676a8078fe583e46497015460405163196d0b9b60e01b81525f917f9e7b61f58c47dc699ac88507c4f5bb9f121c03808c5676a8078fe583e4649700916001600160a01b039091169063196d0b9b906127d89088903390899089906004016133c5565b6020604051808303815f875af11580156127f4573d5f5f3e3d5ffd5b505050506040513d601f19601f820116820180604052508101906128189190613404565b8154604051630f8e573b60e21b8152600481018390523360248201529193506001600160a01b031690633e395cec906044015f604051808303815f87803b158015612861575f5ffd5b505af1158015612873573d5f5f3e3d5ffd5b50505050509392505050565b7f9e7b61f58c47dc699ac88507c4f5bb9f121c03808c5676a8078fe583e464970154604051639cd07acb60e01b81525f917f9e7b61f58c47dc699ac88507c4f5bb9f121c03808c5676a8078fe583e4649700916001600160a01b0390911690639cd07acb906128f4908790879060040161341b565b6020604051808303815f875af1158015612910573d5f5f3e3d5ffd5b505050506040513d601f19601f820116820180604052508101906129349190613404565b949350505050565b5f7f9e7b61f58c47dc699ac88507c4f5bb9f121c03808c5676a8078fe583e46497008054604051635ca4b5b160e11b8152600481018690526001600160a01b03858116602483015292935091169063b9496b62906044015f604051808303815f87803b1580156129aa575f5ffd5b505af11580156129bc573d5f5f3e3d5ffd5b50505050505050565b5f5f82156129d85750600160f81b6129db565b505f5b5f7f9e7b61f58c47dc699ac88507c4f5bb9f121c03808c5676a8078fe583e4649700600181015460405163022f65e760e31b815260048101899052602481018890526001600160f81b0319851660448201529192506001600160a01b03169063117b2f38906064016020604051808303815f875af1158015612a5f573d5f5f3e3d5ffd5b505050506040513d601f19601f82011682018060405250810190612a839190613404565b9695505050505050565b5f8281527f878245876662ba28a480c5ea71726db859fb50222b0a3d7cbbc21cfa336faf0160205260409020547f878245876662ba28a480c5ea71726db859fb50222b0a3d7cbbc21cfa336faf009015612afa57604051633f06d22b60e01b815260040160405180910390fd5b5f83815260018201602090815260409091208351612b1a92850190612b70565b50505050565b828054828255905f5260205f20908101928215612b64579160200282015b82811115612b645782518290612b54908261321c565b5091602001919060010190612b3e565b5061241f929150612bb5565b828054828255905f5260205f20908101928215612ba9579160200282015b82811115612ba9578251825591602001919060010190612b8e565b5061241f929150612bd1565b8082111561241f575f612bc88282612be5565b50600101612bb5565b5b8082111561241f575f8155600101612bd2565b508054612bf19061315f565b5f825580601f10612c00575050565b601f0160209004905f5260205f2090810190612c1c9190612bd1565b50565b5f60208284031215612c2f575f5ffd5b5035919050565b5f5f60408385031215612c47575f5ffd5b50508035926020909101359150565b5f5f60408385031215612c67575f5ffd5b8235915060208301356001600160a01b0381168114612c84575f5ffd5b809150509250929050565b634e487b7160e01b5f52604160045260245ffd5b604051601f8201601f1916810167ffffffffffffffff81118282101715612ccc57612ccc612c8f565b604052919050565b5f82601f830112612ce3575f5ffd5b8135602083015f5f67ffffffffffffffff841115612d0357612d03612c8f565b50601f8301601f1916602001612d1881612ca3565b915050828152858383011115612d2c575f5ffd5b828260208301375f92810160200192909252509392505050565b5f67ffffffffffffffff821115612d5f57612d5f612c8f565b5060051b60200190565b5f5f5f60608486031215612d7b575f5ffd5b83359250602084013567ffffffffffffffff811115612d98575f5ffd5b612da486828701612cd4565b925050604084013567ffffffffffffffff811115612dc0575f5ffd5b8401601f81018613612dd0575f5ffd5b8035612de3612dde82612d46565b612ca3565b8082825260208201915060208360051b850101925088831115612e04575f5ffd5b602084015b83811015612e4557803567ffffffffffffffff811115612e27575f5ffd5b612e368b602083890101612cd4565b84525060209283019201612e09565b50809450505050509250925092565b5f81518084528060208401602086015e5f602082860101526020601f19601f83011685010191505092915050565b61014081525f612e9661014083018d612e54565b8281036020840152612ea8818d612e54565b604084019b909b5250506060810197909752941515608087015292151560a086015260c08501919091526001600160a01b031660e084015261010083015263ffffffff166101209091015292915050565b5f5f5f5f60608587031215612f0c575f5ffd5b8435935060208501359250604085013567ffffffffffffffff811115612f30575f5ffd5b8501601f81018713612f40575f5ffd5b803567ffffffffffffffff811115612f56575f5ffd5b876020828401011115612f67575f5ffd5b949793965060200194505050565b5f5f5f5f60808587031215612f88575f5ffd5b843567ffffffffffffffff811115612f9e575f5ffd5b612faa87828801612cd4565b945050602085013567ffffffffffffffff811115612fc6575f5ffd5b612fd287828801612cd4565b935050604085013567ffffffffffffffff811115612fee575f5ffd5b8501601f81018713612ffe575f5ffd5b803561300c612dde82612d46565b8082825260208201915060208360051b85010192508983111561302d575f5ffd5b602084015b8381101561306e57803567ffffffffffffffff811115613050575f5ffd5b61305f8c602083890101612cd4565b84525060209283019201613032565b509699959850959660600135955050505050565b61012081525f61309661012083018c612e54565b82810360208401526130a8818c612e54565b9050896040840152828103606084015280895180835260208301915060208160051b84010160208c015f5b8381101561310557601f198684030185526130ef838351612e54565b60209586019590935091909101906001016130d3565b5050608086018b905289151560a0870152935061312192505050565b93151560c08201526001600160a01b039290921660e0830152610100909101529695505050505050565b634e487b7160e01b5f52603260045260245ffd5b600181811c9082168061317357607f821691505b60208210810361034557634e487b7160e01b5f52602260045260245ffd5b634e487b7160e01b5f52601160045260245ffd5b5f600182016131b6576131b6613191565b5060010190565b808201808211156123a3576123a3613191565b601f82111561321757805f5260205f20601f840160051c810160208510156131f55750805b601f840160051c820191505b81811015613214575f8155600101613201565b50505b505050565b815167ffffffffffffffff81111561323657613236612c8f565b61324a81613244845461315f565b846131d0565b6020601f82116001811461327c575f83156132655750848201515b5f19600385901b1c1916600184901b178455613214565b5f84815260208120601f198516915b828110156132ab578785015182556020948501946001909201910161328b565b50848210156132c857868401515f19600387901b60f8161c191681555b50505050600190811b01905550565b80820281158282048414176123a3576123a3613191565b604081525f6133006040830185612e54565b90508260208301529392505050565b60ff81811683821601908111156123a3576123a3613191565b5f8151808452602084019350602083015f5b8281101561335857815186526020958601959091019060010161333a565b5093949350505050565b602081525f6109c36020830184613328565b838152606060208201525f61338c6060830185613328565b905063ffffffff60e01b83166040830152949350505050565b605481106133c157634e487b7160e01b5f52602160045260245ffd5b9052565b8481526001600160a01b0384166020820152608060408201525f6133ec6080830185612e54565b90506133fb60608301846133a5565b95945050505050565b5f60208284031215613414575f5ffd5b5051919050565b828152604081016109c360208301846133a556fea164736f6c634300081b000a",
  "devdoc": {
    "details": "Votes are encrypted on-chain and only the admin can decrypt the final sum",
    "kind": "dev",
    "methods": {
      "createElection(string,string,string[],uint256)": {
        "params": {
          "_candidateNames": "Array of candidate names",
          "_description": "The description of the election",
          "_durationInHours": "Duration of the election in hours",
          "_title": "The title of the election"
        }
      },
      "decryptionCallback(uint256,bytes,bytes[])": {
        "details": "Expects the decrypted sum in bytes"
      },
      "endElection(uint256)": {
        "params": {
          "_electionId": "The ID of the election"
        }
      },
      "finalizeElection(uint256)": {
        "params": {
          "_electionId": "The ID of the election"
        }
      },
      "getCandidateVoteCount(uint256,uint256)": {
        "params": {
          "_candidateId": "The candidate ID",
          "_electionId": "The ID of the election"
        },
        "returns": {
          "_0": "Encrypted vote count for the candidate"
        }
      },
      "getDecryptedVoteSum(uint256)": {
        "params": {
          "_electionId": "The ID of the election"
        }
      },
      "getElection(uint256)": {
        "params": {
          "_electionId": "The ID of the election"
        }
      },
      "getEncryptedVoteSum(uint256)": {
        "params": {
          "_electionId": "The ID of the election"
        },
        "returns": {
          "_0": "The encrypted sum of all votes"
        }
      },
      "vote(uint256,bytes32,bytes)": {
        "details": "Students encrypt their candidate choice (1 for candidate A, 2 for candidate B, etc.)",
        "params": {
          "_electionId": "The ID of the election",
          "_encryptedVote": "The encrypted vote (candidate number: 1, 2, 3, etc.)",
          "inputProof": "The proof for the encrypted input"
        }
      }
    },
    "title": "Anonymous Election Contract using FHE",
    "version": 1
  },
  "userdoc": {
    "errors": {
      "HandlesAlreadySavedForRequestID()": [
        {
          "notice": "Returned if some handles were already saved for corresponding ID."
        }
      ]
    },
    "kind": "user",
    "methods": {
      "createElection(string,string,string[],uint256)": {
        "notice": "Create a new election"
      },
      "decryptionCallback(uint256,bytes,bytes[])": {
        "notice": "Callback called by the FHE decryption oracle"
      },
      "endElection(uint256)": {
        "notice": "End an election (admin can call after end time)"
      },
      "finalizeElection(uint256)": {
        "notice": "Request decryption and publish clear results (admin can trigger after election ended)"
      },
      "getCandidateVoteCount(uint256,uint256)": {
        "notice": "Get candidate vote count (encrypted - for admin monitoring)"
      },
      "getDecryptedVoteSum(uint256)": {
        "notice": "Get the decrypted vote sum (only available after finalize)"
      },
      "getElection(uint256)": {
        "notice": "Get election details"
      },
      "getElectionCount()": {
        "notice": "Get total number of elections"
      },
      "getEncryptedVoteSum(uint256)": {
        "notice": "Get the encrypted vote sum (only admin can decrypt)"
      },
      "hasUserVoted(uint256,address)": {
        "notice": "Check if a user has voted in an election"
      },
      "vote(uint256,bytes32,bytes)": {
        "notice": "Cast an encrypted vote"
      }
    },
    "notice": "A simple election system where students vote anonymously using encrypted votes",
    "version": 1
  },
  "storageLayout": {
    "storage": [
      {
        "astId": 39065,
        "contract": "contracts/AnonymousElection.sol:AnonymousElection",
        "label": "elections",
        "offset": 0,
        "slot": "0",
        "type": "t_array(t_struct(Election)39061_storage)dyn_storage"
      },
      {
        "astId": 39071,
        "contract": "contracts/AnonymousElection.sol:AnonymousElection",
        "label": "hasVoted",
        "offset": 0,
        "slot": "1",
        "type": "t_mapping(t_uint256,t_mapping(t_address,t_bool))"
      },
      {
        "astId": 39078,
        "contract": "contracts/AnonymousElection.sol:AnonymousElection",
        "label": "candidateVoteCounts",
        "offset": 0,
        "slot": "2",
        "type": "t_mapping(t_uint256,t_mapping(t_uint256,t_userDefinedValueType(euint32)41126))"
      },
      {
        "astId": 39082,
        "contract": "contracts/AnonymousElection.sol:AnonymousElection",
        "label": "_requestToElection",
        "offset": 0,
        "slot": "3",
        "type": "t_mapping(t_uint256,t_uint256)"
      }
    ],
    "types": {
      "t_address": {
        "encoding": "inplace",
        "label": "address",
        "numberOfBytes": "20"
      },
      "t_array(t_string_storage)dyn_storage": {
        "base": "t_string_storage",
        "encoding": "dynamic_array",
        "label": "string[]",
        "numberOfBytes": "32"
      },
      "t_array(t_struct(Election)39061_storage)dyn_storage": {
        "base": "t_struct(Election)39061_storage",
        "encoding": "dynamic_array",
        "label": "struct AnonymousElection.Election[]",
        "numberOfBytes": "32"
      },
      "t_bool": {
        "encoding": "inplace",
        "label": "bool",
        "numberOfBytes": "1"
      },
      "t_mapping(t_address,t_bool)": {
        "encoding": "mapping",
        "key": "t_address",
        "label": "mapping(address => bool)",
        "numberOfBytes": "32",
        "value": "t_bool"
      },
      "t_mapping(t_uint256,t_mapping(t_address,t_bool))": {
        "encoding": "mapping",
        "key": "t_uint256",
        "label": "mapping(uint256 => mapping(address => bool))",
        "numberOfBytes": "32",
        "value": "t_mapping(t_address,t_bool)"
      },
      "t_mapping(t_uint256,t_mapping(t_uint256,t_userDefinedValueType(euint32)41126))": {
        "encoding": "mapping",
        "key": "t_uint256",
        "label": "mapping(uint256 => mapping(uint256 => euint32))",
        "numberOfBytes": "32",
        "value": "t_mapping(t_uint256,t_userDefinedValueType(euint32)41126)"
      },
      "t_mapping(t_uint256,t_uint256)": {
        "encoding": "mapping",
        "key": "t_uint256",
        "label": "mapping(uint256 => uint256)",
        "numberOfBytes": "32",
        "value": "t_uint256"
      },
      "t_mapping(t_uint256,t_userDefinedValueType(euint32)41126)": {
        "encoding": "mapping",
        "key": "t_uint256",
        "label": "mapping(uint256 => euint32)",
        "numberOfBytes": "32",
        "value": "t_userDefinedValueType(euint32)41126"
      },
      "t_string_storage": {
        "encoding": "bytes",
        "label": "string",
        "numberOfBytes": "32"
      },
      "t_struct(Election)39061_storage": {
        "encoding": "inplace",
        "label": "struct AnonymousElection.Election",
        "members": [
          {
            "astId": 39038,
            "contract": "contracts/AnonymousElection.sol:AnonymousElection",
            "label": "title",
            "offset": 0,
            "slot": "0",
            "type": "t_string_storage"
          },
          {
            "astId": 39040,
            "contract": "contracts/AnonymousElection.sol:AnonymousElection",
            "label": "description",
            "offset": 0,
            "slot": "1",
            "type": "t_string_storage"
          },
          {
            "astId": 39042,
            "contract": "contracts/AnonymousElection.sol:AnonymousElection",
            "label": "candidateCount",
            "offset": 0,
            "slot": "2",
            "type": "t_uint256"
          },
          {
            "astId": 39045,
            "contract": "contracts/AnonymousElection.sol:AnonymousElection",
            "label": "candidateNames",
            "offset": 0,
            "slot": "3",
            "type": "t_array(t_string_storage)dyn_storage"
          },
          {
            "astId": 39047,
            "contract": "contracts/AnonymousElection.sol:AnonymousElection",
            "label": "endTime",
            "offset": 0,
            "slot": "4",
            "type": "t_uint256"
          },
          {
            "astId": 39049,
            "contract": "contracts/AnonymousElection.sol:AnonymousElection",
            "label": "isActive",
            "offset": 0,
            "slot": "5",
            "type": "t_bool"
          },
          {
            "astId": 39051,
            "contract": "contracts/AnonymousElection.sol:AnonymousElection",
            "label": "isFinalized",
            "offset": 1,
            "slot": "5",
            "type": "t_bool"
          },
          {
            "astId": 39054,
            "contract": "contracts/AnonymousElection.sol:AnonymousElection",
            "label": "encryptedVoteSum",
            "offset": 0,
            "slot": "6",
            "type": "t_userDefinedValueType(euint32)41126"
          },
          {
            "astId": 39056,
            "contract": "contracts/AnonymousElection.sol:AnonymousElection",
            "label": "admin",
            "offset": 0,
            "slot": "7",
            "type": "t_address"
          },
          {
            "astId": 39058,
            "contract": "contracts/AnonymousElection.sol:AnonymousElection",
            "label": "totalVoters",
            "offset": 0,
            "slot": "8",
            "type": "t_uint256"
          },
          {
            "astId": 39060,
            "contract": "contracts/AnonymousElection.sol:AnonymousElection",
            "label": "decryptedSum",
            "offset": 0,
            "slot": "9",
            "type": "t_uint32"
          }
        ],
        "numberOfBytes": "320"
      },
      "t_uint256": {
        "encoding": "inplace",
        "label": "uint256",
        "numberOfBytes": "32"
      },
      "t_uint32": {
        "encoding": "inplace",
        "label": "uint32",
        "numberOfBytes": "4"
      },
      "t_userDefinedValueType(euint32)41126": {
        "encoding": "inplace",
        "label": "euint32",
        "numberOfBytes": "32"
      }
    }
  }
}